{
  "_format": "hh-sol-artifact-1",
  "contractName": "CreatorRegistry",
  "sourceName": "contracts/CreatorRegistry.sol",
  "abi": [
    {
      "inputs": [],
      "stateMutability": "nonpayable",
      "type": "constructor"
    },
    {
      "inputs": [
        {
          "internalType": "string",
          "name": "_baseUri",
          "type": "string"
        }
      ],
      "name": "addCreator",
      "outputs": [],
      "stateMutability": "nonpayable",
      "type": "function"
    },
    {
      "inputs": [
        {
          "internalType": "uint256",
          "name": "",
          "type": "uint256"
        }
      ],
      "name": "creatorAddresses",
      "outputs": [
        {
          "internalType": "address",
          "name": "",
          "type": "address"
        }
      ],
      "stateMutability": "view",
      "type": "function"
    },
    {
      "inputs": [],
      "name": "creatorImplementation",
      "outputs": [
        {
          "internalType": "address",
          "name": "",
          "type": "address"
        }
      ],
      "stateMutability": "view",
      "type": "function"
    },
    {
      "inputs": [
        {
          "internalType": "uint256",
          "name": "",
          "type": "uint256"
        }
      ],
      "name": "creators",
      "outputs": [
        {
          "internalType": "address",
          "name": "",
          "type": "address"
        }
      ],
      "stateMutability": "view",
      "type": "function"
    },
    {
      "inputs": [
        {
          "internalType": "address",
          "name": "",
          "type": "address"
        }
      ],
      "name": "creatorsMapping",
      "outputs": [
        {
          "internalType": "address",
          "name": "",
          "type": "address"
        }
      ],
      "stateMutability": "view",
      "type": "function"
    },
    {
      "inputs": [],
      "name": "getCreatorAddresses",
      "outputs": [
        {
          "internalType": "address[]",
          "name": "",
          "type": "address[]"
        }
      ],
      "stateMutability": "view",
      "type": "function"
    },
    {
      "inputs": [],
      "name": "getCreators",
      "outputs": [
        {
          "internalType": "address[]",
          "name": "",
          "type": "address[]"
        }
      ],
      "stateMutability": "view",
      "type": "function"
    }
  ],
  "bytecode": "0x608060405234801561001057600080fd5b5060405161001d9061007e565b604051809103906000f080158015610039573d6000803e3d6000fd5b506000806101000a81548173ffffffffffffffffffffffffffffffffffffffff021916908373ffffffffffffffffffffffffffffffffffffffff16021790555061008b565b61440580610d5483390190565b610cba8061009a6000396000f3fe608060405234801561001057600080fd5b506004361061007d5760003560e01c8063c25824691161005b578063c2582469146100ec578063cd53d08e1461011c578063e6adc1ee1461014c578063fde6f4e81461016a5761007d565b806317fae5931461008257806343c5bb681461009e5780637c0cc8b3146100bc575b600080fd5b61009c600480360381019061009791906108c1565b610188565b005b6100a66104a1565b6040516100b3919061094b565b60405180910390f35b6100d660048036038101906100d1919061099c565b6104c5565b6040516100e3919061094b565b60405180910390f35b610106600480360381019061010191906109f5565b610504565b604051610113919061094b565b60405180910390f35b6101366004803603810190610131919061099c565b610537565b604051610143919061094b565b60405180910390f35b610154610576565b6040516101619190610ae0565b60405180910390f35b610172610604565b60405161017f9190610ae0565b60405180910390f35b600073ffffffffffffffffffffffffffffffffffffffff16600360003373ffffffffffffffffffffffffffffffffffffffff1673ffffffffffffffffffffffffffffffffffffffff16815260200190815260200160002060009054906101000a900473ffffffffffffffffffffffffffffffffffffffff1673ffffffffffffffffffffffffffffffffffffffff1614610256576040517f08c379a000000000000000000000000000000000000000000000000000000000815260040161024d90610b5f565b60405180910390fd5b600061028160008054906101000a900473ffffffffffffffffffffffffffffffffffffffff16610692565b90508073ffffffffffffffffffffffffffffffffffffffff1663f62d1888836040518263ffffffff1660e01b81526004016102bc9190610bf6565b600060405180830381600087803b1580156102d657600080fd5b505af11580156102ea573d6000803e3d6000fd5b505050506001819080600181540180825580915050600190039060005260206000200160009091909190916101000a81548173ffffffffffffffffffffffffffffffffffffffff021916908373ffffffffffffffffffffffffffffffffffffffff1602179055506002339080600181540180825580915050600190039060005260206000200160009091909190916101000a81548173ffffffffffffffffffffffffffffffffffffffff021916908373ffffffffffffffffffffffffffffffffffffffff16021790555080600360003373ffffffffffffffffffffffffffffffffffffffff1673ffffffffffffffffffffffffffffffffffffffff16815260200190815260200160002060006101000a81548173ffffffffffffffffffffffffffffffffffffffff021916908373ffffffffffffffffffffffffffffffffffffffff1602179055508073ffffffffffffffffffffffffffffffffffffffff1663f2fde38b336040518263ffffffff1660e01b815260040161046b919061094b565b600060405180830381600087803b15801561048557600080fd5b505af1158015610499573d6000803e3d6000fd5b505050505050565b60008054906101000a900473ffffffffffffffffffffffffffffffffffffffff1681565b600281815481106104d557600080fd5b906000526020600020016000915054906101000a900473ffffffffffffffffffffffffffffffffffffffff1681565b60036020528060005260406000206000915054906101000a900473ffffffffffffffffffffffffffffffffffffffff1681565b6001818154811061054757600080fd5b906000526020600020016000915054906101000a900473ffffffffffffffffffffffffffffffffffffffff1681565b606060018054806020026020016040519081016040528092919081815260200182805480156105fa57602002820191906000526020600020905b8160009054906101000a900473ffffffffffffffffffffffffffffffffffffffff1673ffffffffffffffffffffffffffffffffffffffff16815260200190600101908083116105b0575b5050505050905090565b6060600280548060200260200160405190810160405280929190818152602001828054801561068857602002820191906000526020600020905b8160009054906101000a900473ffffffffffffffffffffffffffffffffffffffff1673ffffffffffffffffffffffffffffffffffffffff168152602001906001019080831161063e575b5050505050905090565b60006040517f3d602d80600a3d3981f3363d3d373d3d3d363d7300000000000000000000000081528260601b60148201527f5af43d82803e903d91602b57fd5bf3000000000000000000000000000000000060288201526037816000f0915050600073ffffffffffffffffffffffffffffffffffffffff168173ffffffffffffffffffffffffffffffffffffffff161415610762576040517f08c379a000000000000000000000000000000000000000000000000000000000815260040161075990610c64565b60405180910390fd5b919050565b6000604051905090565b600080fd5b600080fd5b600080fd5b600080fd5b6000601f19601f8301169050919050565b7f4e487b7100000000000000000000000000000000000000000000000000000000600052604160045260246000fd5b6107ce82610785565b810181811067ffffffffffffffff821117156107ed576107ec610796565b5b80604052505050565b6000610800610767565b905061080c82826107c5565b919050565b600067ffffffffffffffff82111561082c5761082b610796565b5b61083582610785565b9050602081019050919050565b82818337600083830152505050565b600061086461085f84610811565b6107f6565b9050828152602081018484840111156108805761087f610780565b5b61088b848285610842565b509392505050565b600082601f8301126108a8576108a761077b565b5b81356108b8848260208601610851565b91505092915050565b6000602082840312156108d7576108d6610771565b5b600082013567ffffffffffffffff8111156108f5576108f4610776565b5b61090184828501610893565b91505092915050565b600073ffffffffffffffffffffffffffffffffffffffff82169050919050565b60006109358261090a565b9050919050565b6109458161092a565b82525050565b6000602082019050610960600083018461093c565b92915050565b6000819050919050565b61097981610966565b811461098457600080fd5b50565b60008135905061099681610970565b92915050565b6000602082840312156109b2576109b1610771565b5b60006109c084828501610987565b91505092915050565b6109d28161092a565b81146109dd57600080fd5b50565b6000813590506109ef816109c9565b92915050565b600060208284031215610a0b57610a0a610771565b5b6000610a19848285016109e0565b91505092915050565b600081519050919050565b600082825260208201905092915050565b6000819050602082019050919050565b610a578161092a565b82525050565b6000610a698383610a4e565b60208301905092915050565b6000602082019050919050565b6000610a8d82610a22565b610a978185610a2d565b9350610aa283610a3e565b8060005b83811015610ad3578151610aba8882610a5d565b9750610ac583610a75565b925050600181019050610aa6565b5085935050505092915050565b60006020820190508181036000830152610afa8184610a82565b905092915050565b600082825260208201905092915050565b7f616c72656164792068617665206163636f756e74000000000000000000000000600082015250565b6000610b49601483610b02565b9150610b5482610b13565b602082019050919050565b60006020820190508181036000830152610b7881610b3c565b9050919050565b600081519050919050565b60005b83811015610ba8578082015181840152602081019050610b8d565b83811115610bb7576000848401525b50505050565b6000610bc882610b7f565b610bd28185610b02565b9350610be2818560208601610b8a565b610beb81610785565b840191505092915050565b60006020820190508181036000830152610c108184610bbd565b905092915050565b7f455243313136373a20637265617465206661696c656400000000000000000000600082015250565b6000610c4e601683610b02565b9150610c5982610c18565b602082019050919050565b60006020820190508181036000830152610c7d81610c41565b905091905056fea2646970667358221220b3c8038004f9a1edb2c6eb86a670efea2d9293a590fd624951dedb3b15527ba964736f6c63430008090033608060405234801561001057600080fd5b506143e5806100206000396000f3fe60806040526004361061014a5760003560e01c8063715018a6116100b6578063de1705701161006f578063de170570146104ac578063e985e9c5146104d7578063ebf19a6414610514578063f242432a1461053d578063f2fde38b14610566578063f62d18881461058f5761014a565b8063715018a6146103c25780637cad6194146103d95780638da5cb5b14610404578063a22cb4651461042f578063a632281914610458578063d8cde1c6146104815761014a565b80632f285709116101085780632f285709146102ad57806333b2faaa146102ea5780633ccfd60b1461030657806341f3004a1461031d5780634e1273f41461034857806350cde8ef146103855761014a565b8062fdd58e1461014f57806301ffc9a71461018c578063039af9eb146101c95780630b1e7f831461020a5780630e89341c146102475780632eb2c2d614610284575b600080fd5b34801561015b57600080fd5b5061017660048036038101906101719190612842565b6105b8565b6040516101839190612891565b60405180910390f35b34801561019857600080fd5b506101b360048036038101906101ae9190612904565b610682565b6040516101c0919061294c565b60405180910390f35b3480156101d557600080fd5b506101f060048036038101906101eb9190612967565b610764565b604051610201959493929190612a2d565b60405180910390f35b34801561021657600080fd5b50610231600480360381019061022c9190612967565b61082f565b60405161023e9190612a87565b60405180910390f35b34801561025357600080fd5b5061026e60048036038101906102699190612967565b6108cf565b60405161027b9190612a87565b60405180910390f35b34801561029057600080fd5b506102ab60048036038101906102a69190612ca6565b610963565b005b3480156102b957600080fd5b506102d460048036038101906102cf9190612967565b610a04565b6040516102e19190612891565b60405180910390f35b61030460048036038101906102ff9190612967565b610a28565b005b34801561031257600080fd5b5061031b610b51565b005b34801561032957600080fd5b50610332610c08565b60405161033f9190612e81565b60405180910390f35b34801561035457600080fd5b5061036f600480360381019061036a9190612f66565b610d64565b60405161037c919061309c565b60405180910390f35b34801561039157600080fd5b506103ac60048036038101906103a79190612967565b610e7d565b6040516103b99190612891565b60405180910390f35b3480156103ce57600080fd5b506103d7610ea1565b005b3480156103e557600080fd5b506103ee610eb5565b6040516103fb919061309c565b60405180910390f35b34801561041057600080fd5b50610419610f0d565b60405161042691906130cd565b60405180910390f35b34801561043b57600080fd5b5061045660048036038101906104519190613114565b610f37565b005b34801561046457600080fd5b5061047f600480360381019061047a91906131f5565b610f4d565b005b34801561048d57600080fd5b50610496610fc5565b6040516104a3919061309c565b60405180910390f35b3480156104b857600080fd5b506104c161101d565b6040516104ce9190613385565b60405180910390f35b3480156104e357600080fd5b506104fe60048036038101906104f991906133a7565b6111cc565b60405161050b919061294c565b60405180910390f35b34801561052057600080fd5b5061053b600480360381019061053691906133e7565b611260565b005b34801561054957600080fd5b50610564600480360381019061055f919061346a565b611397565b005b34801561057257600080fd5b5061058d60048036038101906105889190613501565b611438565b005b34801561059b57600080fd5b506105b660048036038101906105b191906131f5565b6114bc565b005b60008073ffffffffffffffffffffffffffffffffffffffff168373ffffffffffffffffffffffffffffffffffffffff161415610629576040517f08c379a0000000000000000000000000000000000000000000000000000000008152600401610620906135a0565b60405180910390fd5b6065600083815260200190815260200160002060008473ffffffffffffffffffffffffffffffffffffffff1673ffffffffffffffffffffffffffffffffffffffff16815260200190815260200160002054905092915050565b60007fd9b67a26000000000000000000000000000000000000000000000000000000007bffffffffffffffffffffffffffffffffffffffffffffffffffffffff1916827bffffffffffffffffffffffffffffffffffffffffffffffffffffffff1916148061074d57507f0e89341c000000000000000000000000000000000000000000000000000000007bffffffffffffffffffffffffffffffffffffffffffffffffffffffff1916827bffffffffffffffffffffffffffffffffffffffffffffffffffffffff1916145b8061075d575061075c82611604565b5b9050919050565b60cc602052806000526040600020600091509050806000018054610787906135ef565b80601f01602080910402602001604051908101604052809291908181526020018280546107b3906135ef565b80156108005780601f106107d557610100808354040283529160200191610800565b820191906000526020600020905b8154815290600101906020018083116107e357829003601f168201915b5050505050908060010154908060020154908060030160009054906101000a900460ff16908060040154905085565b60cd602052806000526040600020600091509050805461084e906135ef565b80601f016020809104026020016040519081016040528092919081815260200182805461087a906135ef565b80156108c75780601f1061089c576101008083540402835291602001916108c7565b820191906000526020600020905b8154815290600101906020018083116108aa57829003601f168201915b505050505081565b6060606780546108de906135ef565b80601f016020809104026020016040519081016040528092919081815260200182805461090a906135ef565b80156109575780601f1061092c57610100808354040283529160200191610957565b820191906000526020600020905b81548152906001019060200180831161093a57829003601f168201915b50505050509050919050565b61096b61166e565b73ffffffffffffffffffffffffffffffffffffffff168573ffffffffffffffffffffffffffffffffffffffff1614806109b157506109b0856109ab61166e565b6111cc565b5b6109f0576040517f08c379a00000000000000000000000000000000000000000000000000000000081526004016109e790613693565b60405180910390fd5b6109fd8585858585611676565b5050505050565b60ca8181548110610a1457600080fd5b906000526020600020016000915090505481565b600060cc600083815260200190815260200160002090506000816002015411610a86576040517f08c379a0000000000000000000000000000000000000000000000000000000008152600401610a7d906136ff565b60405180910390fd5b80600101543414610acc576040517f08c379a0000000000000000000000000000000000000000000000000000000008152600401610ac39061376b565b60405180910390fd5b806002015481600401541115610b17576040517f08c379a0000000000000000000000000000000000000000000000000000000008152600401610b0e906137d7565b60405180910390fd5b610b33338360016040518060200160405280600081525061199b565b806004016000815480929190610b4890613826565b91905055505050565b610b59611b4d565b60003373ffffffffffffffffffffffffffffffffffffffff1647604051610b7f906138a0565b60006040518083038185875af1925050503d8060008114610bbc576040519150601f19603f3d011682016040523d82523d6000602084013e610bc1565b606091505b5050905080610c05576040517f08c379a0000000000000000000000000000000000000000000000000000000008152600401610bfc90613901565b60405180910390fd5b50565b6060600060cb8054905067ffffffffffffffff811115610c2b57610c2a612aae565b5b604051908082528060200260200182016040528015610c5e57816020015b6060815260200190600190039081610c495790505b50905060005b60cb80549050811015610d5c5760cd600060cb8381548110610c8957610c88613921565b5b906000526020600020015481526020019081526020016000208054610cad906135ef565b80601f0160208091040260200160405190810160405280929190818152602001828054610cd9906135ef565b8015610d265780601f10610cfb57610100808354040283529160200191610d26565b820191906000526020600020905b815481529060010190602001808311610d0957829003601f168201915b5050505050828281518110610d3e57610d3d613921565b5b60200260200101819052508080610d5490613826565b915050610c64565b508091505090565b60608151835114610daa576040517f08c379a0000000000000000000000000000000000000000000000000000000008152600401610da1906139c2565b60405180910390fd5b6000835167ffffffffffffffff811115610dc757610dc6612aae565b5b604051908082528060200260200182016040528015610df55781602001602082028036833780820191505090505b50905060005b8451811015610e7257610e42858281518110610e1a57610e19613921565b5b6020026020010151858381518110610e3557610e34613921565b5b60200260200101516105b8565b828281518110610e5557610e54613921565b5b60200260200101818152505080610e6b90613826565b9050610dfb565b508091505092915050565b60cb8181548110610e8d57600080fd5b906000526020600020016000915090505481565b610ea9611b4d565b610eb36000611bcb565b565b606060cb805480602002602001604051908101604052809291908181526020018280548015610f0357602002820191906000526020600020905b815481526020019060010190808311610eef575b5050505050905090565b6000609760009054906101000a900473ffffffffffffffffffffffffffffffffffffffff16905090565b610f49610f4261166e565b8383611c91565b5050565b610f55611b4d565b60cb610f6160c9611dfe565b90806001815401808255809150506001900390600052602060002001600090919091909150558060cd6000610f9660c9611dfe565b81526020019081526020016000209080519060200190610fb79291906126c6565b50610fc260c9611e0c565b50565b606060ca80548060200260200160405190810160405280929190818152602001828054801561101357602002820191906000526020600020905b815481526020019060010190808311610fff575b5050505050905090565b6060600060ca8054905067ffffffffffffffff8111156110405761103f612aae565b5b60405190808252806020026020018201604052801561107957816020015b61106661274c565b81526020019060019003908161105e5790505b50905060005b60ca805490508110156111c45760cc600060ca83815481106110a4576110a3613921565b5b906000526020600020015481526020019081526020016000206040518060a00160405290816000820180546110d8906135ef565b80601f0160208091040260200160405190810160405280929190818152602001828054611104906135ef565b80156111515780601f1061112657610100808354040283529160200191611151565b820191906000526020600020905b81548152906001019060200180831161113457829003601f168201915b5050505050815260200160018201548152602001600282015481526020016003820160009054906101000a900460ff161515151581526020016004820154815250508282815181106111a6576111a5613921565b5b602002602001018190525080806111bc90613826565b91505061107f565b508091505090565b6000606660008473ffffffffffffffffffffffffffffffffffffffff1673ffffffffffffffffffffffffffffffffffffffff16815260200190815260200160002060008373ffffffffffffffffffffffffffffffffffffffff1673ffffffffffffffffffffffffffffffffffffffff16815260200190815260200160002060009054906101000a900460ff16905092915050565b611268611b4d565b600082116112ab576040517f08c379a00000000000000000000000000000000000000000000000000000000081526004016112a290613a2e565b60405180910390fd5b60006040518060a0016040528086815260200185815260200184815260200183151581526020016000815250905060ca6112e560c9611dfe565b90806001815401808255809150506001900390600052602060002001600090919091909150558060cc600061131a60c9611dfe565b815260200190815260200160002060008201518160000190805190602001906113449291906126c6565b50602082015181600101556040820151816002015560608201518160030160006101000a81548160ff0219169083151502179055506080820151816004015590505061139060c9611e0c565b5050505050565b61139f61166e565b73ffffffffffffffffffffffffffffffffffffffff168573ffffffffffffffffffffffffffffffffffffffff1614806113e557506113e4856113df61166e565b6111cc565b5b611424576040517f08c379a000000000000000000000000000000000000000000000000000000000815260040161141b90613693565b60405180910390fd5b6114318585858585611e22565b5050505050565b611440611b4d565b600073ffffffffffffffffffffffffffffffffffffffff168173ffffffffffffffffffffffffffffffffffffffff1614156114b0576040517f08c379a00000000000000000000000000000000000000000000000000000000081526004016114a790613ac0565b60405180910390fd5b6114b981611bcb565b50565b60008060019054906101000a900460ff161590508080156114ed5750600160008054906101000a900460ff1660ff16105b8061151a57506114fc306120c1565b1580156115195750600160008054906101000a900460ff1660ff16145b5b611559576040517f08c379a000000000000000000000000000000000000000000000000000000000815260040161155090613b52565b60405180910390fd5b60016000806101000a81548160ff021916908360ff1602179055508015611596576001600060016101000a81548160ff0219169083151502179055505b61159f826120e4565b6115a761213f565b80156116005760008060016101000a81548160ff0219169083151502179055507f7f26b83ff96e1f2b6a682f133852f6798a09c465da95921460cefb384740249860016040516115f79190613bc4565b60405180910390a15b5050565b60007f01ffc9a7000000000000000000000000000000000000000000000000000000007bffffffffffffffffffffffffffffffffffffffffffffffffffffffff1916827bffffffffffffffffffffffffffffffffffffffffffffffffffffffff1916149050919050565b600033905090565b81518351146116ba576040517f08c379a00000000000000000000000000000000000000000000000000000000081526004016116b190613c51565b60405180910390fd5b600073ffffffffffffffffffffffffffffffffffffffff168473ffffffffffffffffffffffffffffffffffffffff16141561172a576040517f08c379a000000000000000000000000000000000000000000000000000000000815260040161172190613ce3565b60405180910390fd5b600061173461166e565b9050611744818787878787612198565b60005b84518110156118f857600085828151811061176557611764613921565b5b60200260200101519050600085838151811061178457611783613921565b5b6020026020010151905060006065600084815260200190815260200160002060008b73ffffffffffffffffffffffffffffffffffffffff1673ffffffffffffffffffffffffffffffffffffffff16815260200190815260200160002054905081811015611826576040517f08c379a000000000000000000000000000000000000000000000000000000000815260040161181d90613d75565b60405180910390fd5b8181036065600085815260200190815260200160002060008c73ffffffffffffffffffffffffffffffffffffffff1673ffffffffffffffffffffffffffffffffffffffff16815260200190815260200160002081905550816065600085815260200190815260200160002060008b73ffffffffffffffffffffffffffffffffffffffff1673ffffffffffffffffffffffffffffffffffffffff16815260200190815260200160002060008282546118dd9190613d95565b92505081905550505050806118f190613826565b9050611747565b508473ffffffffffffffffffffffffffffffffffffffff168673ffffffffffffffffffffffffffffffffffffffff168273ffffffffffffffffffffffffffffffffffffffff167f4a39dc06d4c0dbc64b70af90fd698a233a518aa5d07e595d983b8c0526c8f7fb878760405161196f929190613deb565b60405180910390a46119858187878787876121a0565b6119938187878787876121a8565b505050505050565b600073ffffffffffffffffffffffffffffffffffffffff168473ffffffffffffffffffffffffffffffffffffffff161415611a0b576040517f08c379a0000000000000000000000000000000000000000000000000000000008152600401611a0290613e94565b60405180910390fd5b6000611a1561166e565b90506000611a228561238f565b90506000611a2f8561238f565b9050611a4083600089858589612198565b846065600088815260200190815260200160002060008973ffffffffffffffffffffffffffffffffffffffff1673ffffffffffffffffffffffffffffffffffffffff1681526020019081526020016000206000828254611aa09190613d95565b925050819055508673ffffffffffffffffffffffffffffffffffffffff16600073ffffffffffffffffffffffffffffffffffffffff168473ffffffffffffffffffffffffffffffffffffffff167fc3d58168c5ae7397731d063d5bbf3d657854427343f4c083240f7aacaa2d0f628989604051611b1e929190613eb4565b60405180910390a4611b35836000898585896121a0565b611b4483600089898989612409565b50505050505050565b611b5561166e565b73ffffffffffffffffffffffffffffffffffffffff16611b73610f0d565b73ffffffffffffffffffffffffffffffffffffffff1614611bc9576040517f08c379a0000000000000000000000000000000000000000000000000000000008152600401611bc090613f29565b60405180910390fd5b565b6000609760009054906101000a900473ffffffffffffffffffffffffffffffffffffffff16905081609760006101000a81548173ffffffffffffffffffffffffffffffffffffffff021916908373ffffffffffffffffffffffffffffffffffffffff1602179055508173ffffffffffffffffffffffffffffffffffffffff168173ffffffffffffffffffffffffffffffffffffffff167f8be0079c531659141344cd1fd0a4f28419497f9722a3daafe3b4186f6b6457e060405160405180910390a35050565b8173ffffffffffffffffffffffffffffffffffffffff168373ffffffffffffffffffffffffffffffffffffffff161415611d00576040517f08c379a0000000000000000000000000000000000000000000000000000000008152600401611cf790613fbb565b60405180910390fd5b80606660008573ffffffffffffffffffffffffffffffffffffffff1673ffffffffffffffffffffffffffffffffffffffff16815260200190815260200160002060008473ffffffffffffffffffffffffffffffffffffffff1673ffffffffffffffffffffffffffffffffffffffff16815260200190815260200160002060006101000a81548160ff0219169083151502179055508173ffffffffffffffffffffffffffffffffffffffff168373ffffffffffffffffffffffffffffffffffffffff167f17307eab39ab6107e8899845ad3d59bd9653f200f220920489ca2b5937696c3183604051611df1919061294c565b60405180910390a3505050565b600081600001549050919050565b6001816000016000828254019250508190555050565b600073ffffffffffffffffffffffffffffffffffffffff168473ffffffffffffffffffffffffffffffffffffffff161415611e92576040517f08c379a0000000000000000000000000000000000000000000000000000000008152600401611e8990613ce3565b60405180910390fd5b6000611e9c61166e565b90506000611ea98561238f565b90506000611eb68561238f565b9050611ec6838989858589612198565b60006065600088815260200190815260200160002060008a73ffffffffffffffffffffffffffffffffffffffff1673ffffffffffffffffffffffffffffffffffffffff16815260200190815260200160002054905085811015611f5e576040517f08c379a0000000000000000000000000000000000000000000000000000000008152600401611f5590613d75565b60405180910390fd5b8581036065600089815260200190815260200160002060008b73ffffffffffffffffffffffffffffffffffffffff1673ffffffffffffffffffffffffffffffffffffffff16815260200190815260200160002081905550856065600089815260200190815260200160002060008a73ffffffffffffffffffffffffffffffffffffffff1673ffffffffffffffffffffffffffffffffffffffff16815260200190815260200160002060008282546120159190613d95565b925050819055508773ffffffffffffffffffffffffffffffffffffffff168973ffffffffffffffffffffffffffffffffffffffff168573ffffffffffffffffffffffffffffffffffffffff167fc3d58168c5ae7397731d063d5bbf3d657854427343f4c083240f7aacaa2d0f628a8a604051612092929190613eb4565b60405180910390a46120a8848a8a86868a6121a0565b6120b6848a8a8a8a8a612409565b505050505050505050565b6000808273ffffffffffffffffffffffffffffffffffffffff163b119050919050565b600060019054906101000a900460ff16612133576040517f08c379a000000000000000000000000000000000000000000000000000000000815260040161212a9061404d565b60405180910390fd5b61213c816125f0565b50565b600060019054906101000a900460ff1661218e576040517f08c379a00000000000000000000000000000000000000000000000000000000081526004016121859061404d565b60405180910390fd5b61219661264b565b565b505050505050565b505050505050565b6121c78473ffffffffffffffffffffffffffffffffffffffff166120c1565b15612387578373ffffffffffffffffffffffffffffffffffffffff1663bc197c8187878686866040518663ffffffff1660e01b815260040161220d9594939291906140c2565b602060405180830381600087803b15801561222757600080fd5b505af192505050801561225857506040513d601f19601f82011682018060405250810190612255919061413f565b60015b6122fe57612264614179565b806308c379a014156122c1575061227961419b565b8061228457506122c3565b806040517f08c379a00000000000000000000000000000000000000000000000000000000081526004016122b89190612a87565b60405180910390fd5b505b6040517f08c379a00000000000000000000000000000000000000000000000000000000081526004016122f5906142a3565b60405180910390fd5b63bc197c8160e01b7bffffffffffffffffffffffffffffffffffffffffffffffffffffffff1916817bffffffffffffffffffffffffffffffffffffffffffffffffffffffff191614612385576040517f08c379a000000000000000000000000000000000000000000000000000000000815260040161237c90614335565b60405180910390fd5b505b505050505050565b60606000600167ffffffffffffffff8111156123ae576123ad612aae565b5b6040519080825280602002602001820160405280156123dc5781602001602082028036833780820191505090505b50905082816000815181106123f4576123f3613921565b5b60200260200101818152505080915050919050565b6124288473ffffffffffffffffffffffffffffffffffffffff166120c1565b156125e8578373ffffffffffffffffffffffffffffffffffffffff1663f23a6e6187878686866040518663ffffffff1660e01b815260040161246e959493929190614355565b602060405180830381600087803b15801561248857600080fd5b505af19250505080156124b957506040513d601f19601f820116820180604052508101906124b6919061413f565b60015b61255f576124c5614179565b806308c379a0141561252257506124da61419b565b806124e55750612524565b806040517f08c379a00000000000000000000000000000000000000000000000000000000081526004016125199190612a87565b60405180910390fd5b505b6040517f08c379a0000000000000000000000000000000000000000000000000000000008152600401612556906142a3565b60405180910390fd5b63f23a6e6160e01b7bffffffffffffffffffffffffffffffffffffffffffffffffffffffff1916817bffffffffffffffffffffffffffffffffffffffffffffffffffffffff1916146125e6576040517f08c379a00000000000000000000000000000000000000000000000000000000081526004016125dd90614335565b60405180910390fd5b505b505050505050565b600060019054906101000a900460ff1661263f576040517f08c379a00000000000000000000000000000000000000000000000000000000081526004016126369061404d565b60405180910390fd5b612648816126ac565b50565b600060019054906101000a900460ff1661269a576040517f08c379a00000000000000000000000000000000000000000000000000000000081526004016126919061404d565b60405180910390fd5b6126aa6126a561166e565b611bcb565b565b80606790805190602001906126c29291906126c6565b5050565b8280546126d2906135ef565b90600052602060002090601f0160209004810192826126f4576000855561273b565b82601f1061270d57805160ff191683800117855561273b565b8280016001018555821561273b579182015b8281111561273a57825182559160200191906001019061271f565b5b509050612748919061277d565b5090565b6040518060a00160405280606081526020016000815260200160008152602001600015158152602001600081525090565b5b8082111561279657600081600090555060010161277e565b5090565b6000604051905090565b600080fd5b600080fd5b600073ffffffffffffffffffffffffffffffffffffffff82169050919050565b60006127d9826127ae565b9050919050565b6127e9816127ce565b81146127f457600080fd5b50565b600081359050612806816127e0565b92915050565b6000819050919050565b61281f8161280c565b811461282a57600080fd5b50565b60008135905061283c81612816565b92915050565b60008060408385031215612859576128586127a4565b5b6000612867858286016127f7565b92505060206128788582860161282d565b9150509250929050565b61288b8161280c565b82525050565b60006020820190506128a66000830184612882565b92915050565b60007fffffffff0000000000000000000000000000000000000000000000000000000082169050919050565b6128e1816128ac565b81146128ec57600080fd5b50565b6000813590506128fe816128d8565b92915050565b60006020828403121561291a576129196127a4565b5b6000612928848285016128ef565b91505092915050565b60008115159050919050565b61294681612931565b82525050565b6000602082019050612961600083018461293d565b92915050565b60006020828403121561297d5761297c6127a4565b5b600061298b8482850161282d565b91505092915050565b600081519050919050565b600082825260208201905092915050565b60005b838110156129ce5780820151818401526020810190506129b3565b838111156129dd576000848401525b50505050565b6000601f19601f8301169050919050565b60006129ff82612994565b612a09818561299f565b9350612a198185602086016129b0565b612a22816129e3565b840191505092915050565b600060a0820190508181036000830152612a4781886129f4565b9050612a566020830187612882565b612a636040830186612882565b612a70606083018561293d565b612a7d6080830184612882565b9695505050505050565b60006020820190508181036000830152612aa181846129f4565b905092915050565b600080fd5b7f4e487b7100000000000000000000000000000000000000000000000000000000600052604160045260246000fd5b612ae6826129e3565b810181811067ffffffffffffffff82111715612b0557612b04612aae565b5b80604052505050565b6000612b1861279a565b9050612b248282612add565b919050565b600067ffffffffffffffff821115612b4457612b43612aae565b5b602082029050602081019050919050565b600080fd5b6000612b6d612b6884612b29565b612b0e565b90508083825260208201905060208402830185811115612b9057612b8f612b55565b5b835b81811015612bb95780612ba5888261282d565b845260208401935050602081019050612b92565b5050509392505050565b600082601f830112612bd857612bd7612aa9565b5b8135612be8848260208601612b5a565b91505092915050565b600080fd5b600067ffffffffffffffff821115612c1157612c10612aae565b5b612c1a826129e3565b9050602081019050919050565b82818337600083830152505050565b6000612c49612c4484612bf6565b612b0e565b905082815260208101848484011115612c6557612c64612bf1565b5b612c70848285612c27565b509392505050565b600082601f830112612c8d57612c8c612aa9565b5b8135612c9d848260208601612c36565b91505092915050565b600080600080600060a08688031215612cc257612cc16127a4565b5b6000612cd0888289016127f7565b9550506020612ce1888289016127f7565b945050604086013567ffffffffffffffff811115612d0257612d016127a9565b5b612d0e88828901612bc3565b935050606086013567ffffffffffffffff811115612d2f57612d2e6127a9565b5b612d3b88828901612bc3565b925050608086013567ffffffffffffffff811115612d5c57612d5b6127a9565b5b612d6888828901612c78565b9150509295509295909350565b600081519050919050565b600082825260208201905092915050565b6000819050602082019050919050565b600082825260208201905092915050565b6000612dbd82612994565b612dc78185612da1565b9350612dd78185602086016129b0565b612de0816129e3565b840191505092915050565b6000612df78383612db2565b905092915050565b6000602082019050919050565b6000612e1782612d75565b612e218185612d80565b935083602082028501612e3385612d91565b8060005b85811015612e6f5784840389528151612e508582612deb565b9450612e5b83612dff565b925060208a01995050600181019050612e37565b50829750879550505050505092915050565b60006020820190508181036000830152612e9b8184612e0c565b905092915050565b600067ffffffffffffffff821115612ebe57612ebd612aae565b5b602082029050602081019050919050565b6000612ee2612edd84612ea3565b612b0e565b90508083825260208201905060208402830185811115612f0557612f04612b55565b5b835b81811015612f2e5780612f1a88826127f7565b845260208401935050602081019050612f07565b5050509392505050565b600082601f830112612f4d57612f4c612aa9565b5b8135612f5d848260208601612ecf565b91505092915050565b60008060408385031215612f7d57612f7c6127a4565b5b600083013567ffffffffffffffff811115612f9b57612f9a6127a9565b5b612fa785828601612f38565b925050602083013567ffffffffffffffff811115612fc857612fc76127a9565b5b612fd485828601612bc3565b9150509250929050565b600081519050919050565b600082825260208201905092915050565b6000819050602082019050919050565b6130138161280c565b82525050565b6000613025838361300a565b60208301905092915050565b6000602082019050919050565b600061304982612fde565b6130538185612fe9565b935061305e83612ffa565b8060005b8381101561308f5781516130768882613019565b975061308183613031565b925050600181019050613062565b5085935050505092915050565b600060208201905081810360008301526130b6818461303e565b905092915050565b6130c7816127ce565b82525050565b60006020820190506130e260008301846130be565b92915050565b6130f181612931565b81146130fc57600080fd5b50565b60008135905061310e816130e8565b92915050565b6000806040838503121561312b5761312a6127a4565b5b6000613139858286016127f7565b925050602061314a858286016130ff565b9150509250929050565b600067ffffffffffffffff82111561316f5761316e612aae565b5b613178826129e3565b9050602081019050919050565b600061319861319384613154565b612b0e565b9050828152602081018484840111156131b4576131b3612bf1565b5b6131bf848285612c27565b509392505050565b600082601f8301126131dc576131db612aa9565b5b81356131ec848260208601613185565b91505092915050565b60006020828403121561320b5761320a6127a4565b5b600082013567ffffffffffffffff811115613229576132286127a9565b5b613235848285016131c7565b91505092915050565b600081519050919050565b600082825260208201905092915050565b6000819050602082019050919050565b61327381612931565b82525050565b600060a08301600083015184820360008601526132968282612db2565b91505060208301516132ab602086018261300a565b5060408301516132be604086018261300a565b5060608301516132d1606086018261326a565b5060808301516132e4608086018261300a565b508091505092915050565b60006132fb8383613279565b905092915050565b6000602082019050919050565b600061331b8261323e565b6133258185613249565b9350836020820285016133378561325a565b8060005b85811015613373578484038952815161335485826132ef565b945061335f83613303565b925060208a0199505060018101905061333b565b50829750879550505050505092915050565b6000602082019050818103600083015261339f8184613310565b905092915050565b600080604083850312156133be576133bd6127a4565b5b60006133cc858286016127f7565b92505060206133dd858286016127f7565b9150509250929050565b60008060008060808587031215613401576134006127a4565b5b600085013567ffffffffffffffff81111561341f5761341e6127a9565b5b61342b878288016131c7565b945050602061343c8782880161282d565b935050604061344d8782880161282d565b925050606061345e878288016130ff565b91505092959194509250565b600080600080600060a08688031215613486576134856127a4565b5b6000613494888289016127f7565b95505060206134a5888289016127f7565b94505060406134b68882890161282d565b93505060606134c78882890161282d565b925050608086013567ffffffffffffffff8111156134e8576134e76127a9565b5b6134f488828901612c78565b9150509295509295909350565b600060208284031215613517576135166127a4565b5b6000613525848285016127f7565b91505092915050565b7f455243313135353a2061646472657373207a65726f206973206e6f742061207660008201527f616c6964206f776e657200000000000000000000000000000000000000000000602082015250565b600061358a602a8361299f565b91506135958261352e565b604082019050919050565b600060208201905081810360008301526135b98161357d565b9050919050565b7f4e487b7100000000000000000000000000000000000000000000000000000000600052602260045260246000fd5b6000600282049050600182168061360757607f821691505b6020821081141561361b5761361a6135c0565b5b50919050565b7f455243313135353a2063616c6c6572206973206e6f7420746f6b656e206f776e60008201527f6572206e6f7220617070726f7665640000000000000000000000000000000000602082015250565b600061367d602f8361299f565b915061368882613621565b604082019050919050565b600060208201905081810360008301526136ac81613670565b9050919050565b7f5469657220646f6573206e6f7420657869737473000000000000000000000000600082015250565b60006136e960148361299f565b91506136f4826136b3565b602082019050919050565b60006020820190508181036000830152613718816136dc565b9050919050565b7f57726f6e672076616c7565000000000000000000000000000000000000000000600082015250565b6000613755600b8361299f565b91506137608261371f565b602082019050919050565b6000602082019050818103600083015261378481613748565b9050919050565b7f4d617820737570706c79206973206d696e746564000000000000000000000000600082015250565b60006137c160148361299f565b91506137cc8261378b565b602082019050919050565b600060208201905081810360008301526137f0816137b4565b9050919050565b7f4e487b7100000000000000000000000000000000000000000000000000000000600052601160045260246000fd5b60006138318261280c565b91507fffffffffffffffffffffffffffffffffffffffffffffffffffffffffffffffff821415613864576138636137f7565b5b600182019050919050565b600081905092915050565b50565b600061388a60008361386f565b91506138958261387a565b600082019050919050565b60006138ab8261387d565b9150819050919050565b7f4661696c656420746f2073656e64204574686572000000000000000000000000600082015250565b60006138eb60148361299f565b91506138f6826138b5565b602082019050919050565b6000602082019050818103600083015261391a816138de565b9050919050565b7f4e487b7100000000000000000000000000000000000000000000000000000000600052603260045260246000fd5b7f455243313135353a206163636f756e747320616e6420696473206c656e67746860008201527f206d69736d617463680000000000000000000000000000000000000000000000602082015250565b60006139ac60298361299f565b91506139b782613950565b604082019050919050565b600060208201905081810360008301526139db8161399f565b9050919050565b7f746f74616c537570706c79203e20300000000000000000000000000000000000600082015250565b6000613a18600f8361299f565b9150613a23826139e2565b602082019050919050565b60006020820190508181036000830152613a4781613a0b565b9050919050565b7f4f776e61626c653a206e6577206f776e657220697320746865207a65726f206160008201527f6464726573730000000000000000000000000000000000000000000000000000602082015250565b6000613aaa60268361299f565b9150613ab582613a4e565b604082019050919050565b60006020820190508181036000830152613ad981613a9d565b9050919050565b7f496e697469616c697a61626c653a20636f6e747261637420697320616c72656160008201527f647920696e697469616c697a6564000000000000000000000000000000000000602082015250565b6000613b3c602e8361299f565b9150613b4782613ae0565b604082019050919050565b60006020820190508181036000830152613b6b81613b2f565b9050919050565b6000819050919050565b600060ff82169050919050565b6000819050919050565b6000613bae613ba9613ba484613b72565b613b89565b613b7c565b9050919050565b613bbe81613b93565b82525050565b6000602082019050613bd96000830184613bb5565b92915050565b7f455243313135353a2069647320616e6420616d6f756e7473206c656e6774682060008201527f6d69736d61746368000000000000000000000000000000000000000000000000602082015250565b6000613c3b60288361299f565b9150613c4682613bdf565b604082019050919050565b60006020820190508181036000830152613c6a81613c2e565b9050919050565b7f455243313135353a207472616e7366657220746f20746865207a65726f20616460008201527f6472657373000000000000000000000000000000000000000000000000000000602082015250565b6000613ccd60258361299f565b9150613cd882613c71565b604082019050919050565b60006020820190508181036000830152613cfc81613cc0565b9050919050565b7f455243313135353a20696e73756666696369656e742062616c616e636520666f60008201527f72207472616e7366657200000000000000000000000000000000000000000000602082015250565b6000613d5f602a8361299f565b9150613d6a82613d03565b604082019050919050565b60006020820190508181036000830152613d8e81613d52565b9050919050565b6000613da08261280c565b9150613dab8361280c565b9250827fffffffffffffffffffffffffffffffffffffffffffffffffffffffffffffffff03821115613de057613ddf6137f7565b5b828201905092915050565b60006040820190508181036000830152613e05818561303e565b90508181036020830152613e19818461303e565b90509392505050565b7f455243313135353a206d696e7420746f20746865207a65726f2061646472657360008201527f7300000000000000000000000000000000000000000000000000000000000000602082015250565b6000613e7e60218361299f565b9150613e8982613e22565b604082019050919050565b60006020820190508181036000830152613ead81613e71565b9050919050565b6000604082019050613ec96000830185612882565b613ed66020830184612882565b9392505050565b7f4f776e61626c653a2063616c6c6572206973206e6f7420746865206f776e6572600082015250565b6000613f1360208361299f565b9150613f1e82613edd565b602082019050919050565b60006020820190508181036000830152613f4281613f06565b9050919050565b7f455243313135353a2073657474696e6720617070726f76616c2073746174757360008201527f20666f722073656c660000000000000000000000000000000000000000000000602082015250565b6000613fa560298361299f565b9150613fb082613f49565b604082019050919050565b60006020820190508181036000830152613fd481613f98565b9050919050565b7f496e697469616c697a61626c653a20636f6e7472616374206973206e6f74206960008201527f6e697469616c697a696e67000000000000000000000000000000000000000000602082015250565b6000614037602b8361299f565b915061404282613fdb565b604082019050919050565b600060208201905081810360008301526140668161402a565b9050919050565b600081519050919050565b600082825260208201905092915050565b60006140948261406d565b61409e8185614078565b93506140ae8185602086016129b0565b6140b7816129e3565b840191505092915050565b600060a0820190506140d760008301886130be565b6140e460208301876130be565b81810360408301526140f6818661303e565b9050818103606083015261410a818561303e565b9050818103608083015261411e8184614089565b90509695505050505050565b600081519050614139816128d8565b92915050565b600060208284031215614155576141546127a4565b5b60006141638482850161412a565b91505092915050565b60008160e01c9050919050565b600060033d11156141985760046000803e61419560005161416c565b90505b90565b600060443d10156141ab5761422e565b6141b361279a565b60043d036004823e80513d602482011167ffffffffffffffff821117156141db57505061422e565b808201805167ffffffffffffffff8111156141f9575050505061422e565b80602083010160043d03850181111561421657505050505061422e565b61422582602001850186612add565b82955050505050505b90565b7f455243313135353a207472616e7366657220746f206e6f6e204552433131353560008201527f526563656976657220696d706c656d656e746572000000000000000000000000602082015250565b600061428d60348361299f565b915061429882614231565b604082019050919050565b600060208201905081810360008301526142bc81614280565b9050919050565b7f455243313135353a204552433131353552656365697665722072656a6563746560008201527f6420746f6b656e73000000000000000000000000000000000000000000000000602082015250565b600061431f60288361299f565b915061432a826142c3565b604082019050919050565b6000602082019050818103600083015261434e81614312565b9050919050565b600060a08201905061436a60008301886130be565b61437760208301876130be565b6143846040830186612882565b6143916060830185612882565b81810360808301526143a38184614089565b9050969550505050505056fea26469706673582212201d1cf3615a9ff4c48dca65bbbb372cca95ea47ed755a9c0f3e0887daec71ac3e64736f6c63430008090033",
  "linkReferences": {},
  "deployedLinkReferences": {}
}